:020000040000FA
:100000000A128A11E72FFF1B0D2883137F1883170D
:100010000008840A0319FF0A080000308A00040857
:10002000840A82070034013400340A340034643412
:100030000034E834033410342734533465346734DF
:1000400075346E3464346F34203444346934673426
:10005000693474346F3420342534693400344334C3
:1000600075346134723474346F34203444346934F8
:100070006734693474346F3420342534693400347F
:100080005434653472346334653472342034443407
:1000900069346734693474346F34203425346934F6
:1000A00000345034723469346D3465347234203421
:1000B000443469346734693474346F3420342534FB
:1000C0006934003449346E346734723465347334BF
:1000D0006534203443346C34613476346534003410
:1000E00045346C3465346334743472346F346E3434
:1000F000693463346134003442346C346F347134A5
:1001000075346534613464346134003443346534A7
:10011000723472346134643475347234613400344E
:10012000543472347934203441346734613469345E
:100130006E340034503461347334733477346F3434
:100140007234643400344F34743472346134203483
:10015000563465347A340034503472346534733430
:1001600073342034233400344134623469346534C8
:100170007234743461340034573472346F346E34F2
:0401800067340034AC
:10018600B2340434831203130714080000300A1231
:100196008A15C9270A128A1101300A128A15C92737
:1001A6000A128A110800F000701CDA28DB28DF2802
:1001B600831203130816E228831203130812F01C95
:1001C600E528E628E8288816E9288812701DEC2814
:1001D600ED28EF280817F0280813F01DF328F42857
:1001E600F6288817F72888130800F401F501701C13
:1001F600FD28FE2804297208F4070318F50A730877
:10020600F50701300310F20DF30DFF3E031D05291E
:1002160001300310F10CF00CFF3E031D0C29700891
:100226007104031D17291829FA287508F1007408A6
:10023600F0000800F40074080F39F1007108F200AC
:100246007408F039F1007108F300831203130815DE
:100256007308F10004300310F10CFF3E031D2E2934
:1002660071080A128A11D6200A128A118312031300
:1002760088150D30F100F10B3E2983120313881106
:1002860072080A128A11D6200A128A1183120313DF
:1002960088150D30F100F10B4E29831203138811D6
:1002A600080078087904031959295A298929FD0172
:1002B600FD0A682901300310F80DF90DFF3E031DF4
:1002C6005E290130FC007C08FD07F91F6B296C29AB
:1002D6005D2979087B02031D722978087A02031CBE
:1002E600752976297C297808FA027908031CFB030C
:1002F600FB0201300310F90CF80CFF3E031D7D29AB
:100306000130FD02031D882989296C297B08F90023
:100316007A08F8000800FA01FB01B3297A08750784
:10032600F8007608F7000318F70AFA1F9B29F70367
:100336007708F900790883120313FF007808840010
:100346000A128A1103200A128A110A128A111D2121
:100356000A128A110130FA070318FB0A0030FB075C
:100366007A087507F8007608F7000318F70AFA1FE7
:10037600BD29F7037708F900790883120313FF00F4
:10038600780884000A128A1103200A128A11003A98
:10039600031DCE29CF2991290800F501F601700821
:1003A60071040319D729D8290F2AF701F70AE62974
:1003B60001300310F00DF10DFF3E031DDC29013065
:1003C600F4007408F707F11FE929EA29DB2901304F
:1003D6000310F50DF60DFF3E031DEB2971087302A0
:1003E600031DF72970087202031CFA29FB29022A49
:1003F6007008F2027108031CF303F302751401304E
:100406000310F10CF00CFF3E031D032A0130F70226
:10041600031D0E2A0F2AEA297608F1007508F00056
:100426000800F7007703031D192A1A2A3D2A7408C3
:100436007F3EF5007508FA007A08F50004300310CF
:10044600F50CFF3E031D222A7508F6007608F80013
:100456007A080F39F5007508F90078080A128A1526
:10046600C9270A128A1179080A128A15C9270A1297
:100476008A11652A02307706031D422A432A652A15
:100486007408BF3EF5007508FA007A08F5000430D6
:100496000310F50CFF3E031D4B2A7508F60076087F
:1004A600F8007A080F39F5007508F90078080A127D
:1004B6008A15C9270A128A1179080A128A15C927C4
:1004C6000A128A11080000300A128A11D6200A126E
:1004D6008A111A30F500F830F400F40B702AF50B87
:1004E600702A000003300A128A15C9270A128A11D7
:1004F6000730F5007D30F400F40B7F2AF50B7F2AD8
:1005060003300A128A15C9270A128A110F30F5001C
:100516004730F400F40B8D2AF50B8D2A922A03300E
:100526000A128A15C9270A128A1102300A128A1576
:10053600C9270A128A1102300A128A15C9270A1215
:100546008A1108300A128A15C9270A128A11003040
:100556000A128A15C9270A128A110C300A128A153C
:10056600C9270A128A1100300A128A15C9270A12E7
:100576008A1106300A128A15C9270A128A1108003A
:10058600643083120313C5000030C60001308600B4
:100596000D30F100FB30F000F00BCF2AF10BCF2A23
:1005A600D42A83120313061ED92ADA2ADF2A013037
:1005B600C5000030C600F02A861EE22AE32AE82A91
:1005C6000230C5000030C600F02A061FEB2AEC2ACE
:1005D600F02A0330C5000030C600023086000D3018
:1005E600F100FB30F000F00BF62AF10BF62AFB2A9D
:1005F60083120313061E002B012B062B0430C500A5
:100606000030C600172B861E092B0A2B0F2B053030
:10061600C5000030C600172B061F122B132B172BF5
:100626000630C5000030C600043086000D30F100EB
:10063600FB30F000F00B1D2BF10B1D2B222B831230
:100646000313061E272B282B2D2B0730C500003041
:10065600C6003E2B861E302B312B362B0830C500AC
:100666000030C6003E2B061F392B3A2B3E2B093095
:10067600C5000030C600083086000D30F100FB30A2
:10068600F000F00B442BF10B442B492B8312031380
:10069600061E4E2B4F2B542B2A30C5000030C600A9
:1006A600632B861E572B582B5B2BC501C601632B6C
:1006B600061F5E2B5F2B632B2330C5000030C60060
:1006C6004508080083120313AB002130A30023085A
:1006D600A600362C25302C060319722B732B7F2B84
:1006E6002C08A3002B088400230883138000013004
:1006F600A3002308AB07362CA7010130A007FF3063
:10070600200784000A128A110D200A128A11AC00F1
:10071600A300A4012408003A0319922B362C2308BF
:10072600003A0319482C643A03199D2B0D3A031914
:100736009D2B362C2608840083130008A900840A02
:100746000008AA000230A3002308A607AA1FAC2BA4
:10075600AD2BB62B0330A3002308A704A909AA09C9
:10076600A90A0319AA0AAC01AC0A2C08A30023079C
:10077600013E84000A128A110D200A128A11A40071
:100786000A128A110D200A128A11A50025082A02CA
:10079600031DCF2B240829020318D22BD32BD42BCD
:1007A600DE2B0130A3002308AC0705302C06031D01
:1007B600DD2BDE2BB82B270803390319E32BE42B9B
:1007C600EF2B2D30A3002B08840023088313800011
:1007D6000130A3002308AB072C08A3002308A800B8
:1007E6002D2C0A30F8000030F9002808A300230752
:1007F600013E84000A128A110D200A128A11F000A5
:100806000A128A110D200A128A11F1002A08F30031
:100816002908F2000A128A11D0210A128A117108D7
:10082600FB007008FA000A128A1154210A128A1172
:100836007808303E83120313A4002408AC002C0869
:10084600A3002B0884002308831380000130A30033
:100856002308AB07FF30A3002308A807280A031DB7
:10086600352C362CF42B0130A007FF3020078400EE
:100876000A128A110D200A128A11A3002308AC005D
:100886002C08031D472C482C6D2B2B088400831342
:10089600800108008316031388018701F030860063
:1008A600831203138801870186010A128A116622C0
:1008B6000A128A110A128A11C9200A128A110430F0
:1008C60083120313AD002D08F40001300A128A11B9
:1008D60014220A128A117430F5008030F6000A12CA
:1008E6008A118E210A128A11033083120313AD0076
:1008F6002D08F40002300A128A1114220A128A11F3
:100906005E30F5008030F6000A128A118E210A1236
:100916008A110A128A15A4270A128A11063083122E
:100926000313AF001330AE00AD30AD00AD0B992C04
:10093600AE0B992CAF0B992CCD2F0A128A15A02736
:100946000A128A110A128A11C3220A128A11831202
:100956000313AD00AE012D08C9002E08CA0064308D
:1009660049064A040319B82CB92C462E2A304906E2
:100976004A040319BF2CC02C462E233049064A04CC
:100986000319C62CC72C462E47084804031DCC2C39
:10099600CD2C302D0A128A15B0270A128A1103307F
:1009A60083120313AF008A30AE005530AD00AD0B95
:1009B600DA2CAE0BDA2CAF0BDA2C3F308312031392
:1009C600AD002D08A0004A08A2004908A100313058
:1009D6000A128A1165230A128A110A128A11C9207B
:1009E6000A128A11F401F40A01300A128A11142239
:1009F6000A128A113130F5000030F6000A128A1107
:100A06008E210A128A11033083120313AF008A3033
:100A1600AE005530AD00AD0B0E2DAE0B0E2DAF0B4F
:100A26000E2D831203134A08F1004908F000E8303E
:100A3600F2000330F3000A128A11F8200A128A1112
:100A4600710883120313CE007008CD000130C7076A
:100A56000318C80A0030C8072E2E47034804031D92
:100A6600352D362D8B2D0A128A15B0270A128A11BA
:100A76000B3083120313AD002D08A0004A08A20014
:100A86004908A10031300A128A1165230A128A1117
:100A96000A128A11C9200A128A11F401F40A0130D5
:100AA6000A128A1114220A128A113130F500003016
:100AB600F6000A128A118E210A128A110330831255
:100AC6000313AF008A30AE005530AD00AD0B692D73
:100AD600AE0B692DAF0B692D831203134A08F10083
:100AE6004908F0006430F2000030F3000A128A115F
:100AF600F8200A128A11710883120313D0007008B5
:100B0600CF000130C7070318C80A0030C8072E2EC9
:100B1600023047064804031D912D922DE72D0A1237
:100B26008A15B0270A128A112E3083120313AD00DC
:100B36002D08A0004A08A2004908A10031300A1277
:100B46008A1165230A128A110A128A11C9200A1209
:100B56008A11F401F40A01300A128A1114220A12C7
:100B66008A113130F5000030F6000A128A118E2102
:100B76000A128A11033083120313AF008A30AE00C3
:100B86005530AD00AD0BC52DAE0BC52DAF0BC52D2C
:100B9600831203134A08F1004908F0000A30F200F4
:100BA6000030F3000A128A11F8200A128A1171081D
:100BB60083120313D2007008D1000130C70703184F
:100BC600C80A0030C8072E2E033047064804031D06
:100BD600ED2DEE2D2E2E0A128A15B0270A128A1135
:100BE6001D3083120313AD002D08A0004A08A20091
:100BF6004908A10031300A128A1165230A128A11A6
:100C06000A128A11C9200A128A11F401F40A013063
:100C16000A128A1114220A128A113130F5000030A4
:100C2600F6000A128A118E210A128A1103308312E3
:100C36000313AF008A30AE005530AD00AD0B212E48
:100C4600AE0B212EAF0B212E831203134A08D400BC
:100C56004908D300292D51085307AD00520803183F
:100C6600520A5407AE004F082D07AF00500803186C
:100C7600500A2E07B0004D082F07CB004E08031868
:100C86004E0A3007CC00B2304B06043003194C062E
:100C9600031D4E2E4F2E9C2E0130D5000030D6005F
:100CA6000A128A159C270A128A110A128A11C5206D
:100CB6000A128A110A128A11C9200A128A110430EC
:100CC60083120313AD002D08F40001300A128A11B5
:100CD60014220A128A117430F5008030F6000A12C6
:100CE6008A118E210A128A11053083120313AD0070
:100CF6002D08F40002300A128A1114220A128A11EF
:100D0600A230F5008030F6000A128A118E210A12EE
:100D16008A111A3083120313AF005E30AE006D30B5
:100D2600AD00AD0B942EAE0B942EAF0B942E9B2ED6
:100D3600CD2F043047064804031DA22EA32ECD2F27
:100D46000A128A11C9200A128A1106308312031365
:100D5600AD002D08F40001300A128A1114220A127D
:100D66008A11AA30F5008030F6000A128A118E2107
:100D76000A128A11053083120313AD002D08F40000
:100D860002300A128A1114220A128A118830F500DA
:100D96008030F6000A128A118E210A128A110B304F
:100DA60083120313AF002630AE005D30AD00AD0BED
:100DB600DA2EAE0BDA2EAF0BDA2E013083120313C6
:100DC600D7070318D80A0030D807C701C80103306F
:100DD60057065804031DF02EF12E332F0A128A15DA
:100DE600E3270A128A110A128A11C9200A128A11E5
:100DF600043083120313AD002D08F40001300A12EB
:100E06008A1114220A128A116A30F5008030F6001F
:100E16000A128A118E210A128A11103083120313C4
:100E2600AF003930AE000D30AD00AD0B182FAE0B54
:100E3600182FAF0B182F023083120313D500003082
:100E4600D600033083120313AF008A30AE0055304C
:100E5600AD00AD0B2C2FAE0B2C2FAF0B2C2FCD2FA7
:100E66000A128A11C9200A128A1104308312031346
:100E7600AD002D08F40001300A128A1114220A125C
:100E86008A117E30F5008030F6000A128A118E2112
:100E96000A128A11083083120313AF009D30AE0088
:100EA6000530AD00AD0B552FAE0B552FAF0B552FA3
:100EB6000A128A11C9200A128A11053083120313F5
:100EC600AD002D08F40001300A128A1114220A120C
:100ED6008A119A30F5008030F6000A128A118E21A6
:100EE6000A128A110A128A11C3220A128A1183125D
:100EF6000313AD00AE012D08C9002E08CA00033049
:100F060083120313AF008A30AE005530AD00AD0B2F
:100F16008A2FAE0B8A2FAF0B8A2F2330831203132F
:100F260049064A04031D982F992F752F0A128A1510
:100F3600B0270A128A110A128A11C9200A128A11C6
:100F4600033083120313AD002D08F40001300A129A
:100F56008A1114220A128A115030F5008030F600E8
:100F66000A128A118E210A128A110430831203137F
:100F7600AD002D08F40002300A128A1114220A125A
:100F86008A119130F5008030F6000A128A118E21FE
:100F96000A128A11831203135808803AFF00803020
:100FA6007F02031DD82F033057020318DB2FDC2FD7
:100FB600E42F83120313550856040319E32FE42F75
:100FC600A02C0A128A1100280A128A11C3200A12BA
:100FD6008A11D9000A128A11C4200A128A11DA006B
:100FE60083134530840059300A128A15A8270A123D
:0A0FF6008A1183010A128A114D2CA2
:101F38008312031387100800831203130710080085
:101F4800831203138714080064008001840A0406BE
:101F5800031900340406A92F8312031307158230CE
:101F6800F100DD30F000F00BB72FF10BB72FBC2FCD
:101F78008312031307118230F100DD30F000F00BFB
:101F8800C32FF10BC32FC82F0800F30083120313CC
:101F9800081173080A128A11D6200A128A158312A8
:101FA800031388150630F2003030F100F10BDA2FF8
:101FB800F20BDA2F00008312031388110800831232
:101FC800031307150630F2001330F100AD30F000AE
:101FD800F00BEC2FF10BEC2FF20BEC2FF32F8312FD
:101FE800031307118230F100DD30F000F00BFA2FF7
:081FF800F10BFA2FFF2F080086
:04400E00F22FFF3F4F
:00000001FF
